:020000040800F2
:1000000078040020490100082D4200082F42000812
:1000100033420008374200083B420008000000005D
:100020000000000000000000000000003F42000847
:100030004142000800000000434200084542000819
:100040006301000863010008630100086301000800
:1000500063010008630100086301000863010008F0
:1000600063010008630100086301000863010008E0
:1000700063010008630100086301000863010008D0
:1000800063010008630100086301000863010008C0
:1000900063010008630100086301000863010008B0
:1000A00063010008630100086301000863010008A0
:1000B000273200086301000863010008630100089B
:1000C0006301000863010008630100086301000880
:1000D0006301000863010008630100086301000870
:1000E0006301000863010008630100086301000860
:1000F0006301000863010008630100086301000850
:10010000630100086301000863010008630100083F
:10011000630100086301000863010008630100082F
:10012000630100086301000863010008630100081F
:10013000DFF810D004F0F0FB00480047354100081C
:10014000AFF3008078040020064880470648004747
:10015000FEE7FEE7FEE7FEE7FEE7FEE7FEE7FEE777
:10016000FEE7FEE76B3C000831010008314901431E
:10017000314A1160704770B5002100230F22C47806
:1001800004B32D4C246804F4E064C4F5E064210A4F
:10019000C1F10403CA40447804FA03F1847814409E
:1001A00021430901254C0678A155047804F01F0568
:1001B0000124AC4005786D11AD0005F1E025C5F8CE
:1001C000004109E0047804F01F050124AC401C4DF7
:1001D0000678761145F8264070BD1A4A0A40024357
:1001E000154B1B1F1A60704739B1134A121D126854
:1001F0000243114B1B1D1A6006E00F4A121D1268C4
:1002000082430D4B1B1D1A607047042808D14FF024
:10021000E021096941F004014FF0E022116107E09B
:100220004FF0E021096921F004014FF0E022116153
:10023000704700000000FA050CED00E000E400E06B
:1002400080E100E080FFFF1F10B50446FA488442B9
:1002500008D10121401501F0EDFB0021601501F0EE
:10026000E9FB17E0F548844208D10121001501F0AF
:10027000E1FB0021201501F0DDFB0BE0F04884429A
:1002800008D10121C80301F0D5FB00214FF4004043
:1002900001F0D0FB10BD30B50246002000235068AD
:1002A000E84C20400D790C6844EA05242043506056
:1002B0009068E54C2040D1E902542C434D7944EA42
:1002C000450420439060D06A20F470000C7C641ECA
:1002D000E4B2234340EA0350D06230BD0021016004
:1002E000017141718160C16001210174704721B1C8
:1002F000826842F00102826003E0826822F001021B
:100300008260704721B1826842F48072826003E0AB
:10031000826822F480728260704710B50023CBB2ED
:100320001AB144681C43446002E044689C43446042
:1003300010BD816841F008018160704701460020CE
:100340008A6802F008020AB1012000E0002070472C
:10035000816841F0040181607047014600208A688D
:1003600002F004020AB1012000E00020704721B130
:10037000826842F4A002826003E0826822F4A00254
:1003800082607047014600208A6802F480020AB148
:10039000012000E00020704710B50A46002100232C
:1003A000416821F46041531E41EA4331416010BD70
:1003B00021B1426842F40062426003E0426822F4E4
:1003C000006242607047F0B504460D4600200021EF
:1003D000092D11DDE068A5F10A0606EB46070726A0
:1003E00006FA07F18843A5F10A0606EB460603FA6A
:1003F00006F10843E0600CE0206905EB450707269D
:1004000006FA07F1884305EB450603FA06F10843AF
:100410002061072A0FDA606B561E06EB86071F263F
:1004200006FA07F18843561E06EB860605FA06F122
:100430000843606322E00D2A0FDA206BD61F06EB1B
:1004400086071F2606FA07F18843D61F06EB8606A5
:1004500005FA06F10843206310E0E06AA2F10D06F8
:1004600006EB86071F2606FA07F18843A2F10D0660
:1004700006EB860605FA06F10843E062F0BD21B1FD
:10048000826842F48012826003E0826822F4801263
:10049000826070470146C86C80B2704766484C3035
:1004A0000068704721B1426842F48062426003E014
:1004B000426822F480624260704721B1426842F48F
:1004C0008052426003E0426822F4805242607047EA
:1004D0000A460021816821F4E041114381607047A0
:1004E00021B1826842F40042826003E0826822F413
:1004F00000428260704721B1826842F40212826039
:1005000003E0826822F402128260704701460020F4
:100510008A6802F400120AB1012000E0002070474E
:10052000F0B504461546002000220026092911DDF9
:10053000E068A1F10A0707EB470C072707FA0CF25E
:100540009043A1F10A0707EB470703FA07F21043AC
:10055000E0600CE0206901EB410C072707FA0CF280
:10056000904301EB410703FA07F210432061A06BAF
:10057000C0F30156EF1C06F1010CA7EB0C0707EBCB
:10058000870C1F2707FA0CF29043EF1C06F1010CB1
:10059000A7EB0C0707EB870701FA07F21043A063EC
:1005A000F0BD10B50A4600210023816B21F44011F3
:1005B000531E41EA0351816310BD08B50023009327
:1005C0000090009B0B440093009B1A6008BD08B587
:1005D000024600200090009201F12800009B184480
:1005E00000900098006880B208BD0A46002141686A
:1005F000164B194011434160704741628262704757
:100600000A460021416821F01F01114341607047F3
:1006100040B109490831096841F40001064A08322D
:10062000116007E004490831096821F40001024A19
:10063000083211607047000000240140002801408A
:10064000003C0140FFFEF0FFFDF7F1FFFFFD3FFF23
:100650000246002013680B400BB1012000E000208F
:100660007047CA430260704770B5024600200023FD
:1006700000240B125568CEB205EA060415681D4029
:1006800015B10CB1012000E0002070BD00220A125B
:10069000D34303607047000001684FF6FE721140BB
:1006A00001600021016041608160C1608D49884224
:1006B00008D18C490839496841F00F01894A083A44
:1006C00051608AE087491431884208D18549083948
:1006D000496841F0F001834A083A51607DE0814960
:1006E0002831884208D17F490839496841F470614E
:1006F0007C4A083A516070E07A493C31884208D11E
:1007000078490839496841F47041764A083A51609D
:1007100063E074495031884208D172490839496808
:1007200041F470216F4A083A516056E06D496431D6
:10073000884208D16B490839496841F47001694A17
:10074000083A516049E067497831884208D16549E3
:100750000839496841F07061624A083A51603CE0EA
:100760006149884206D1011F096841F00F01021F4B
:10077000116032E05C491431884208D15A49091F9E
:10078000096841F0F001584A121F116025E05649EE
:100790002831884208D15449091F096841F4706121
:1007A000514A121F116018E04F493C31884208D16C
:1007B0004D49091F096841F470414B4A121F1160ED
:1007C0000BE049495031884207D14749091F096860
:1007D00041F47021444A121F1160704710B5002285
:1007E000026847F6F0739A430C6A8B6823430C69DE
:1007F00023434C6923438C692343CC6923434C6ACC
:1008000023438C6A23431A430260CB6843600B681E
:1008100083604B68C36010BD00210160416081604E
:10082000C160016141618161C161016241628162B6
:10083000704721B1026842F00102026004E00268E0
:100840004FF6FE731A40026070471AB103680B43FB
:10085000036002E003688B430360704741607047A8
:100860000146486880B2704701460020002201F02E
:1008700080531BB11C4B083B1A6802E0194B083B24
:100880001A6802EA01030BB1012000E00020704762
:1008900000F0805119B11449091F086002E01149A4
:1008A00008394860704701460020002201F080535B
:1008B0001BB10D4B083B1A6802E00A4B083B1A6853
:1008C00002EA01030BB1012000E00020704700F0B4
:1008D000805119B10449091F086002E00149083933
:1008E0004860704708000240080402400020444964
:1008F0000860091D0860091D0860091D086041485D
:100900003F4914310860704700213D498279002A2F
:100910003AD00A46126803689A430B461A600A1DC9
:10092000126803689A430B1D1A60027911440A6821
:1009300003681A430A60324A0832126803689A430D
:100940002F4B08331A601A1D126803689A432C4B08
:100950000C331A604279102A0ED11A1F12680368EC
:100960001A43274B08331A601A1D126803681A438A
:10097000234B0C331A600DE02149427911440A6877
:1009800003681A430A6005E0027911440A680368A3
:100990009A430A6070470021016001710C21417186
:1009A0000021817170471649103109680143144ACA
:1009B00010321160704701460020114A143212684B
:1009C0000A400AB1012000E0002070470C491431B0
:1009D00008607047014600200022094B1B6803EAAB
:1009E0000102074B14331B680B4013B10AB10120FD
:1009F00000E0002070470249143108607047000091
:100A000000040140FFFF0F0001460020FE4A10686D
:100A100000F03800084310607047FB49096821F076
:100A20000801F94A116011460968014311607047D5
:100A3000F549096821F01001F34A1160114609686F
:100A4000014311607047F148EF494860F048486041
:100A50007047EE48EC494860ED4848607047EA4806
:100A6000006940F08000E84908617047E648006985
:100A700040F08000E449086170470420E249C968F9
:100A800001F0010109B101200EE0DF49C96801F060
:100A9000040109B1022007E0DB49C96801F0100137
:100AA00009B1032000E00420704700B5024604238A
:100AB000FFF7E3FF034603E0FFF7DFFF0346521EA5
:100AC000012B01D1002AF7D102B90523184600BD38
:100AD00030B5044604254FF43020FFF7E6FF054605
:100AE000042D17D1C848006940F00200C6490861CA
:100AF00008464461006940F0400008614FF430202E
:100B0000FFF7D3FF0546C048006941F6FD71084074
:100B1000BD490861284630BD10B504244FF430208B
:100B2000FFF7C3FF0446042C16D1B748006940F014
:100B30000400B54908610846006940F040000861BA
:100B40004FF43020FFF7B1FF0446AF48006941F68B
:100B5000FB710840AC490861204610BD00B5024653
:100B60000423FFF78AFF034603E0FFF786FF0346EF
:100B7000521E012B01D1002AF7D102B905231846D4
:100B800000BD10B504244FF43020FFF7E7FF044602
:100B9000042C16D19C48006940F004009A49086171
:100BA0000846006940F0400008614FF43020FFF72C
:100BB000D5FF04469448006941F6FB71084092490C
:100BC0000861204610BD00208F49C96901F002016B
:100BD00009B1012000E00020704730B5A5250424AC
:100BE000FFF7F1FF00B100254FF43020FFF75DFF64
:100BF0000446042C3AD1854883498860844888603B
:100C00000846006940F0200008610846006940F08D
:100C1000400008614FF43020FFF747FF0446042CE2
:100C20001BD17948006941F6DF71084076490861B7
:100C30000846006940F01000086176480580E0022F
:100C4000FFF733FF0446052C10D06F48006941F6CA
:100C5000EF7108406C49086108E0052C06D06A482D
:100C6000006941F6EF71084067490861204630BDD0
:100C700078B506460C46042500200090E802FFF7F0
:100C800014FF0546042D24D15F48006940F001009F
:100C90005D4908613480E802FFF707FF0546042D2F
:100CA00010D1B01C0090200C00990880E802FFF7DA
:100CB000FCFE05465448006941F6FE710840524961
:100CC000086106E05048006941F6FE7108404E494F
:100CD0000861284678BD70B504460D460426F0022A
:100CE000FFF7E3FE0646042E11D14748006940F0A5
:100CF0000100454908612580F002FFF7D6FE06464F
:100D00004148006941F6FE7108403F49086130469C
:100D100070BD70B505460E460424E002FFF7C5FE1F
:100D20000446042C17D13948374988603848886010
:100D30000846006940F0100008612E80E002FFF7CD
:100D4000B4FE0446052C06D02F48006941F6EF7129
:100D500008402D490861204670BD2DE9F043044646
:100D60004FF6FF763746B046B1460425E443E6B277
:100D7000C4F30727C4F307484FEA1469E802FFF7F2
:100D800094FE0546042D49D120481F49886020481B
:100D900088600846006940F010000861FF2E06D008
:100DA0001C4808300680E802FFF77FFE0546042D48
:100DB00008D1FF2F06D017480A300780E802FFF756
:100DC00074FE0546042D0AD1B8F1FF0F07D0114873
:100DD0000C30A0F80080E802FFF767FE0546042DFE
:100DE0000AD1B9F1FF0F07D00A480E30A0F80090E1
:100DF000E802FFF75AFE0546052D0FD002480069AC
:100E000041F6EF71084007E00020024023016745EA
:100E1000AB89EFCD00F8FF1F664908612846BDE8A1
:100E2000F08330B5054604244FF43020FFF73DFE33
:100E30000446042C41D160485E4988605F48886060
:100E40000846006940F0200008610846006940F04B
:100E5000400008614FF43020FFF727FE0446042CC1
:100E600022D15448006941F6DF71084051490861B8
:100E70000846006940F0100008611DB1002050498B
:100E8000088002E0A5204E4908804FF43020FFF78B
:100E90000CFE0446052C10D04648006941F6EF715F
:100EA00008404449086108E0052C06D04148006923
:100EB00041F6DF7108403F490861204630BDF0B57A
:100EC00005460E46174604243B483A4988603B488D
:100ED0008860E002FFF7E9FD0446042C19D135488B
:100EE000006940F010003349086147F0F8003043D2
:100EF00028433349891C0880E002FFF7D6FD0446E9
:100F0000052C06D02B48006941F6EF7108402949AD
:100F100008612046F0BD2748C06980087047254811
:100F2000006A704700202349096801F0200109B1D7
:100F3000012000E00020704729B11E4A12690243D7
:100F40001C4B1A6104E01B4A12698243194B1A6157
:100F5000704701460020012908D1164AD26902F0E3
:100F600001020AB1012008E0002006E0114AD2681F
:100F70000A400AB1012000E0002070470D49C86016
:100F8000704704200B49C96801F0010109B1012033
:100F90000EE00849C96801F0040109B1022007E028
:100FA0000449C96801F0100109B1032000E00420E0
:100FB000704700000020024023016745AB89EFCD58
:100FC00000F8FF1F10B50446CC48844208D1012127
:100FD000042000F02FFD0021042000F02BFD46E04E
:100FE000C748844208D10121082000F023FD0021D8
:100FF000082000F01FFD3AE0C248844208D10121D8
:10100000102000F017FD0021102000F013FD2EE04D
:10101000BD48844208D10121202000F00BFD0021B1
:10102000202000F007FD22E0B848844208D10121C9
:10103000402000F0FFFC0021402000F0FBFC16E007
:10104000B348844208D10121802000F0F3FC002144
:10105000802000F0EFFC0AE0AE48844207D1012175
:10106000801500F0E7FC0021A01500F0E3FC10BDA6
:1010700010B50121084600F0DDFC0021012000F040
:10108000D9FC10BD2DE9F0410246002500260020C4
:1010900000230024002791F803C00CF00F0591F8FD
:1010A00003C00CF0100CBCF1000F03D091F802C08B
:1010B0004CEA050591F800C0BCF1000F31D014686E
:1010C00000202BE04FF0010C0CFA00F3B1F800C047
:1010D0000CEA03069E4220D183004FF00F0C0CFA5D
:1010E00003F7BC4305FA03FC4CEA040491F803C07F
:1010F000BCF1280F06D14FF0010C0CFA00FCC2F82D
:1011000014C00AE091F803C0BCF1480F05D14FF0BC
:10111000010C0CFA00FCC2F810C0401C0828D1D306
:101120001460B1F800C0BCF1FF0F34DD546800203A
:101130002EE000F1080C4FF0010808FA0CF3B1F8AA
:1011400000C00CEA03069E4221D183004FF00F0C31
:101150000CFA03F7BC4305FA03FC4CEA040491F8CB
:1011600003C0BCF1280F05D100F1080C08FA0CF8F7
:10117000C2F8148091F803C0BCF1480F07D100F108
:10118000080C4FF0010808FA0CF8C2F81080401C57
:101190000828CED35460BDE8F0814FF6FF7101807E
:1011A000022181700421C1707047024600209368BB
:1011B0000B400BB1012000E0002070470146886819
:1011C00080B2704702460020D3680B400BB101206B
:1011D00000E0002070470146C86880B27047016196
:1011E0007047416170470AB1016100E04161704799
:1011F000C16070474FF480320A438261816182612D
:1012000082698269704702460020434B18684FF696
:101210008073184040EA021008433F4B1860704743
:101220003E49C8617047F0B50A46002300240021FA
:10123000002500F00046B6F1004F02D1364EF169AC
:1012400001E0354E7168C0F3034583B200F44016E7
:10125000B6F5401F08D121F070612F4E766826F058
:1012600070662D4F7E6012E000F48016B6F5801F88
:1012700006D1032606FA05F4A14341F0706106E0A9
:10128000460D360103FA06F6B14341F0706122B112
:10129000460D360103FA06F6314300F00046B6F17A
:1012A000004F02D11C4EF16101E01B4E7160F0BD98
:1012B00030B500228B071C0F0F2303FA04F2164BE4
:1012C00008338C1053F824309343134C08348D109A
:1012D00044F8253023468C1053F824308C07240F13
:1012E00000FA04F423430C4C08348D1044F82530E4
:1012F00030BD0A49DC310860704700000008014039
:10130000000C014000100140001401400018014091
:10131000001C01400020014000000140000020426C
:1013200010B50446F748844209D10121480500F070
:101330008EFB00214FF4001000F089FB08E0012132
:10134000880500F084FB00214FF4800000F07FFB53
:1013500010BD2DE9F04385B004460D460026B14688
:101360000427DFF8A483A6884FF6C07006406846BD
:1013700000F0D9FADDF80880E448B8FBF0F01FFA75
:1013800080F946EA0906A68020884FF6FE710840DB
:1013900020800026DE49286888420CD82868400052
:1013A000B8FBF0F087B2042F00DA04273E4309F1BE
:1013B0000100208427E0E8884BF6FF71884206D1BF
:1013C000286800EB4000B8FBF0F087B209E028681D
:1013D00000EBC00101EB0010B8FBF0F087B247F45E
:1013E0008047C7F30B0008B947F0010747F40040F6
:1013F00006434FF4967009FB00F04FF47A7190FBAE
:10140000F1F0401C2084A683208840F00100208059
:1014100026884FF6F5300640A888698908430643B8
:101420002680A88929890843208105B0BDE8F0837A
:1014300041F288310160002181804BF6FF71C1804B
:101440000021018141814FF480418181704721B1A8
:10145000028842F00102028004E002884FF6FE7327
:101460001A400280704721B1828842F40062828073
:1014700004E082884FF2FF731A408280704721B1E6
:10148000828842F48052828004E082884EF6FF73A4
:101490001A408280704721B1028842F48072028033
:1014A00004E002884FF6FF631A400280704721B1C2
:1014B000028842F40072028004E002884FF6FF5373
:1014C0001A400280704721B1028842F48062028093
:1014D00004E002884FF6FF331A40028070470A4644
:1014E000002181894FF60173194002F0FE03194370
:1014F0008181704721B1828942F00102828104E03A
:1015000082894FF6FE731A408281704721B10288AA
:1015100042F04002028004E002884FF6BF731A4096
:10152000028070471AB183880B43838002E083886E
:101530008B4383807047018270470146088AC0B29E
:10154000704712B141F0010102E04FF6FE731940FD
:101550000182704708B50246002000900092009872
:10156000084400900098008808BD21B1028842F428
:101570000042028003E00288C2F30E02028070473C
:10158000B1F5006F04D1028842F40062028004E0E9
:1015900002884FF2FF731A4002807047B1F5005F76
:1015A00004D1028842F40052028004E002884DF621
:1015B000FF731A400280704721B1028842F48052C2
:1015C000028004E002884EF6FF731A4002807047E2
:1015D000B1F5006F04D1028842F40062028004E099
:1015E00002884FF2FF731A400280704721B10288CF
:1015F00042F02002028004E002884FF6DF731A40B6
:10160000028070470146088B0012704721B10288A2
:1016100042F01002028004E002884FF6EF731A4095
:101620000280704721B9028842F08002028004E003
:1016300002884FF67F731A4002807047B1F5804FE1
:1016400005D0828B4BF6FF731A40828303E0828BB6
:1016500042F480428283704770B502460024002520
:1016600000230020958A138B1B0445EA030626F00D
:101670007F4404EA01068E4201D1012000E00020EF
:1016800070BD10B501460020002300228B8A0A8B12
:10169000120443EA020424F07F4010BD0CB5024658
:1016A000002000230193009300920B0F019321F07F
:1016B0007F41019B1BB1009B1433009303E0090C95
:1016C000009B18330093009B1B680B400BB101205B
:1016D00000E000200CBD002221F07F42D343838232
:1016E000704730B5024600200023948801F0E06581
:1016F00004EA154321F07F41948A0C4054B14BB168
:10170000012008E00054004000127A0040420F001F
:10171000A0860100002030BD002221F07F42D3438B
:1017200083827047DF48006840F00100DD490860AF
:1017300008464068DC490840DA49486008460068C5
:10174000DA490840D74908600846006820F480203C
:1017500008600846406820F4FE0048604FF41F000F
:1017600088607047CF49096821F48031CD4A116003
:101770001146096821F480211160B0F5803F03D043
:10178000B0F5802F0ED106E0C649096841F48031DA
:10179000C44A116007E0C349096841F4A021C14A65
:1017A000116000E000BF00BF704710B50146002285
:1017B000002300204A11012A02D1BA4C236806E016
:1017C000022A02D1B74C236A01E0B64C636A01F0E9
:1017D0001F02012494401C400CB1012000E00020B5
:1017E00010BD38B5002000900024002500BF312036
:1017F000FFF7DBFF05460098401C00900098B0F50D
:10180000A06F01D0002DF2D03120FFF7CEFF08B13C
:10181000012400E00024204638BD01460020A14AF2
:10182000106820F0F80040EAC10010607047A0493D
:1018300008607047024600209A4B586820F47C10DC
:1018400042EA01031843974B58607047984908666D
:10185000704701460020934A506820F00300084377
:10186000506070478F48406800F00C007047014698
:1018700000208C4A506820F0F00008435060704708
:1018800001460020874A506820F4E0600843506019
:10189000704701460020834A506820F4605040EAB7
:1018A000C1005060704729B17E4A527A02437D4B95
:1018B0005A7204E07B4A527A82437A4B5A727047DA
:1018C0007B49D8310860704701460020754A50684E
:1018D00020F440400843506070470021714A203294
:1018E0001170704A82F82010012802D004280AD111
:1018F00004E001216B4A2032117005E00521694A9C
:101900002032117000E000BF00BF704769490860D5
:1019100070476449096A0143624A11627047654928
:1019200044390860704730B50021002200240023AC
:101930005C4D6D6805F00C0121B1042905D0082922
:1019400023D105E05C4D056022E05B4D05601FE0A2
:10195000544D6D6805F47012524D6D6805F4803475
:10196000022505EB92421CB9544D554305600BE02E
:101970004C4D6D6805F400351DB1504D5543056063
:1019800002E04D4D5543056002E04B4D056000BF40
:1019900000BF444D6D6805F0F0010909484D6B5CCE
:1019A0000568DD4045603F4D6D6805F4E061090A5A
:1019B000434D6B5C4568DD4085603A4D6D6805F4CC
:1019C0006051C90A3E4D6B5C4568DD40C560354DD0
:1019D0006D6805F44041890B3A4D6B5CC568B5FBF9
:1019E000F3F5056130BD29B12E4A526902432D4BF2
:1019F0005A6104E02B4A526982432A4B5A6170476C
:101A000029B1284A92690243264B9A6104E0254A8B
:101A100092698243234B9A61704729B1214AD26966
:101A20000243204BDA6104E01E4AD26982431D4B17
:101A3000DA61704729B11B4AD2680243194BDA6058
:101A400004E0184AD2688243164BDA60704729B125
:101A5000144A12690243134B1A6104E0114A1269D5
:101A60008243104B1A617047124940390860704731
:101A70000F49C86470470B49C87170470948406AEC
:101A800040F0807007494862704701460020054ACF
:101A900092680A400AB1012000E000207047014925
:101AA00088727047001002400000FFF8FFFFF6FE4A
:101AB000000042428004424200127A0000093D00C8
:101AC000000000201000002010B50446FE488442AB
:101AD00008D10121C014FFF7ADFF0021E014FFF78A
:101AE000A9FFC4E0B4F1804F08D101210846FFF7F7
:101AF000AEFF00210120FFF7AAFFB8E0F3488442BF
:101B000008D101210220FFF7A2FF00210220FFF7E8
:101B10009EFFACE0EE48844208D101210420FFF78B
:101B200096FF00210420FFF792FFA0E0E9488442DD
:101B300008D101210820FFF78AFF00210820FFF7C4
:101B400086FF94E0E448844208D101211020FFF789
:101B50007EFF00211020FFF77AFF88E0DF488442F3
:101B600008D101212020FFF772FF00212020FFF77C
:101B70006EFF7CE0DA48844208D101214014FFF76F
:101B800059FF00216014FFF755FF70E0D5488442EB
:101B900009D10121C804FFF74DFF00214FF40020B7
:101BA000FFF748FF63E0D048844209D101210805CE
:101BB000FFF740FF00214FF48010FFF73BFF56E096
:101BC000CA48844209D101214805FFF733FF0021AB
:101BD0004FF40010FFF72EFF49E0C548844208D1BA
:101BE00001214020FFF733FF00214020FFF72FFFA6
:101BF0003DE0C048844208D101218020FFF727FF43
:101C000000218020FFF723FF31E0BB48844208D148
:101C100001218015FFF71BFF0021A015FFF717FF1B
:101C200025E0B648844209D101210804FFF702FFEC
:101C300000214FF48030FFF7FDFE18E0B0488442E9
:101C400009D101214804FFF7F5FE00214FF40030CF
:101C5000FFF7F0FE0BE0AB48844208D10121880475
:101C6000FFF7E8FE00214FF48020FFF7E3FE10BDF0
:101C700000220288944B98420ED0994B98420BD088
:101C8000B0F1804F08D0914B984205D0904B9842CC
:101C900002D0904B984204D14FF68F731A404B8874
:101CA0001A438D4B984207D08C4B984204D04FF684
:101CB000FF431A40CB881A4302808B8883850B88A8
:101CC0000385814B98420BD0854B984208D08B4BB3
:101CD000984205D08A4B984202D08A4B984201D153
:101CE0000B7A038601238382704770B5002400229B
:101CF0000023058C4FF6FE7635400584028C8388E0
:101D0000048B4FF68F752C40B51E2C400D882C434C
:101D1000751E2A400D892A434D882A436A4DA842E0
:101D20000BD06F4DA84208D0744DA84205D0744D19
:101D3000A84202D0734DA84213D14FF6F7752A403E
:101D40004D892A434FF6FB752A408D882A434FF66A
:101D5000FF652B404FF6FF552B408D892B43CD89D6
:101D60002B4383800483CD888586028470BD70B543
:101D7000002400220023058C4FF6EF7635400584C1
:101D8000028C8388048B48F6FF752C404FF6FF4584
:101D90002C400D884FF6FF7606EA05252C434FF6BA
:101DA000DF752A400D8906EA05152A434D8806EAA3
:101DB00005152A43444DA84202D0494DA8421DD1E1
:101DC0004FF67F752A404D894FF6FF7606EA0515D6
:101DD0002A434FF6BF752A408D8806EA05152A4327
:101DE0004FF6FF352B404FF2FF752B408D8906EAE9
:101DF00085052B43CD8906EA85052B438380048323
:101E0000CD880587028470BD70B5002400220023B0
:101E1000058C4FF6FF6635400584028C8388848BE1
:101E20004FF68F752C404FF6FC752C400D882C43D7
:101E30004FF6FF552A400D894FF6FF7606EA052535
:101E40002A434D8806EA05252A431F4DA84202D0A1
:101E5000234DA8421DD14FF2FF752A404D894FF600
:101E6000FF7606EA05252A434FF6FF352A408D887E
:101E700006EA05252A434EF6FF752B404DF6FF7501
:101E80002B408D8906EA05152B43CD8906EA0515F9
:101E90002B4383808483CD888587028470BD70B591
:101EA000002200230024058C4EF6FF763540058481
:101EB000038C8488828B48F6FF752A404FF6FF45D5
:101EC0002A400D8820E00000002C01400004004062
:101ED00000080040000C00400010004000140040CA
:101EE00000340140004C01400050014000540140CA
:101EF00000180040001C004000200040004001404D
:101F000000440140004801404FF6FF7606EA0525EF
:101F10002A434DF6FF752B400D8906EA05352B4304
:101F20004D8806EA05352B43FA4DA84202D0FA4DFA
:101F3000A84208D14BF6FF752C408D894FF6FF76ED
:101F400006EA85152C4384808283CD88A0F8405012
:101F5000038470BD828B4FF2FF331A408283828BE1
:101F60004FF6FF7303EA01231A4382837047F0B5EB
:101F70000C461546002200210026078C4EF6FF7CF9
:101F800007EA0C070784828B018C4FF6FF7707EA7C
:101F9000043640F6FF473A404FF6FF7707EA052739
:101FA0003A434FF6FF7707EA03373A43D94FB8422F
:101FB0000ED0D94FB8420BD0B0F1804F08D0D74FD8
:101FC000B84205D0D64FB84202D0D64FB84206D15B
:101FD0004DF6FF77394046F48057394305E047F620
:101FE000FF57394044F48057394382830184F0BD60
:101FF000828B4FF6F3731A408283828B0A4382836B
:102000007047F0B50C461546002200210026078CCB
:102010004FF6FF6C07EA0C070784828B018C4FF6A2
:10202000FF7707EA04264FF60C773A404FF6FF7722
:1020300007EA03172F433A43B64FB8420ED0B64FC4
:10204000B8420BD0B0F1804F08D0B44FB84205D0A1
:10205000B34FB84202D0B34FB84206D14FF6FF5744
:10206000394046F48077394305E04FF2FF57394055
:1020700044F48077394382830184F0BD028B4FF2B0
:10208000FF331A400283028B4FF6FF7303EA0123EA
:102090001A4302837047F0B50C4615460022002112
:1020A0000026078C4FF6EF7C07EA0C070784028BAB
:1020B000018C4FF6FF7707EA041640F6FF473A40D7
:1020C0004FF6FF7707EA03373A434FF6FF7707EA01
:1020D00005273A438F4FB8420ED08F4FB8420BD0EE
:1020E000B0F1804F08D08D4FB84205D08C4FB84228
:1020F00002D08C4FB84206D14FF6DF77394046F018
:102100001007394305E04FF65F77394044F0100778
:10211000394302830184F0BD028B4FF6F3731A40FA
:102120000283028B0A4302837047F0B50C461546C2
:1021300000220021068C4FF6FE773E400684028B7B
:10214000018C4FF60C7632407E1C06EA03162E43B5
:102150003243704EB0420ED06F4EB0420BD0B0F151
:10216000804F08D06D4EB04205D06D4EB04202D0C7
:102170006C4EB04206D14FF6FD76314044F0010678
:10218000314305E04FF6F576314044F00106314326
:1021900002830184F0BD70B505460C465D4885425A
:1021A0000ED05D4885420BD0B5F1804F08D05B481A
:1021B000854205D05A48854202D05A48854200D10E
:1021C00000E000BF208850B92389A2886188284692
:1021D000FFF7ABFFE1882846FFF79EFF25E0208848
:1021E00004280AD12389A28861882846FFF753FF73
:1021F000E1882846FFF742FF17E0208808280AD127
:102200002389A28861882846FFF7FBFEE1882846DB
:10221000FFF7EEFE09E02389A28861882846FFF7D0
:10222000A6FEE1882846FFF795FE70BD2DE9F04136
:1022300005460C4600260127608808B9022600E002
:102240000026A088012801D1022700E0012720886C
:10225000A0B92389A28861882846FFF766FFE18834
:102260002846FFF759FF23893A4631462846FFF7AB
:1022700012FFE1882846FFF701FF13E02389A288B7
:1022800061882846FFF707FFE1882846FFF7F6FE3A
:1022900023893A4631462846FFF747FFE18828461A
:1022A000FFF73AFFBDE8F0810A884B881A438B8814
:1022B0001A43CB881A430B891A434B891A438B89DB
:1022C0001A43A0F8442070474FF6FF718180002127
:1022D0000180C180418001727047002101804180EE
:1022E0008180C180018141818181C181704700214C
:1022F00001804180012181800021C18001817047DE
:102300000021018041808180C180018141818181E2
:1023100070470000002C01400034014000040040E0
:1023200000080040000C004021B1028842F0010288
:10233000028004E002884FF6FE731A400280704764
:1023400031B1B0F8442042F40042A0F8442005E046
:10235000B0F84420C2F30E02A0F8442070471AB12E
:1023600083890B43838102E083898B438381704798
:102370008182704741EA0203A0F8483070471AB1E1
:1023800083890B43838102E083898B438381704778
:1023900001894FF6F8721140018170470A46002109
:1023A00001894FF68F73194011430181704730B591
:1023B00004460D4629462046FFF7F0FF208940F0ED
:1023C0000700208130BD2DE9F04104460D46164638
:1023D0001F46602D06D13B46012231462046FFF7BD
:1023E0005AFE05E03B46012231462046FFF79DFE9E
:1023F00029462046FFF7D2FF208940F007002081C0
:10240000BDE8F08130B50C4600210189C9B24FF614
:10241000FF7505EA0325154325432943018130BD96
:102420002DE9F04105460E461746984600244346DE
:102430003A4631462846FFF7E5FF2C894FF6F870FB
:10244000044044F007044FF68F70044044F07004D9
:102450002C81BDE8F081F0B504460D4616461F46B6
:102460003B46324629462046FFF7CCFF208940F400
:1024700080402081F0BD0185828270470A4600219C
:1024800001884FF68F731940114301807047F0B5F2
:102490000C4615461E460021002200230189028BAE
:1024A000038C4FF6F877394021434FF6FC473A400A
:1024B00040F201173A434FF6DD773B404FF6FF7786
:1024C00007EA06172F433B43018102830384F0BDD3
:1024D0000A460021018B4FF68F7319401143018387
:1024E00070470A460021018B48F6FF7319404FF6EA
:1024F000FF7303EA02231943018370470A46002150
:10250000818B4FF68F7319401143818370470A46C0
:102510000021818B48F6FF7319404FF6FF7303EAE1
:10252000022319438183704721B1028842F080025F
:10253000028004E002884FF67F731A4002807047E1
:1025400021B1828842F00402828004E082884FF642
:10255000FB731A408280704721B1828842F00802E2
:10256000828004E082884FF6F7731A4082807047B9
:1025700021B1828842F00102828004E082884FF615
:10258000FE731A40828070470A460021018B4FF685
:10259000F77319401143018370470A460021018BEC
:1025A0004FF2FF7319404FF6FF7303EA02231943FA
:1025B000018370470A460021818B4FF6F77319405B
:1025C0001143818370470A460021818B4FF2FF73CC
:1025D00019404FF6FF7303EA0223194381837047C2
:1025E0000A460021018B4FF6FB731940114301830A
:1025F00070470A460021018B4FF6FF3319404FF612
:10260000FF7303EA02231943018370470A4600213E
:10261000818B4FF6FB7319401143818370470A4643
:102620000021818B4FF6FF3319404FF6FF7303EA09
:1026300002231943818370470A460021018B4FF61C
:102640007F7319401143018370470A460021018BB3
:10265000C1F30E014FF6FF7303EA0223194301830E
:1026600070470A460021818B4FF67F731940114352
:10267000818370470A460021818BC1F30E014FF61A
:10268000FF7303EA02231943818370470A4600213E
:10269000018C4FF6FD7319401143018470470A46BF
:1026A0000021018C4FF6F7731940114301847047E4
:1026B0000A460021018C4FF6DF7319404FF6FF7375
:1026C00003EA02131943018470470A460021018C72
:1026D0004FF67F7319404FF6FF7303EA0213194355
:1026E000018470470A460021018C4FF6FF531940C0
:1026F0004FF6FF7303EA02231943018470470A4629
:102700000021018C4FF2FF7319404FF6FF7303EA6B
:1027100002231943018470470A460021018C4DF6BB
:10272000FF7319404FF6FF7303EA02331943018424
:10273000704730B5002301248C40A3B2048C9C4325
:102740000484048C02FA01F5ADB22C43048430BD3C
:1027500030B5002304248C40A3B2048C9C43048431
:10276000048C02FA01F5ADB22C43048430BD70B57F
:102770000346002000241846183001258D40ACB2D5
:102780001D8CA5431D8409B1082909D100EB610006
:10279000056825F0700505600568154305600EE0C5
:1027A0000D1FC5F34E052844056825F4E045056076
:1027B00005684FF6FF7606EA02263543056070BDD0
:1027C00021B1028842F00202028004E002884FF642
:1027D000FD731A400280704721B1028842F0040262
:1027E000028004E002884FF6FB731A4002807047B3
:1027F00021B1828842F08002828004E082884FF614
:102800007F731A408280704702884FF6F7731A4030
:10281000028002880A430280704782884FF68F73D5
:102820001A40828082880A438280704702894FF66C
:10283000F8731A40028102890A43028170470289B3
:102840004FF67F731A40028102890A430281704762
:102850008184704781857047818670470187704702
:1028600081877047A0F84010704702884FF6FF43F9
:102870001A40028002880A43028070470146888E0F
:1028800070470146088F70470146888F70470146A0
:10289000B1F8400070470146888C70470146088DAA
:1028A000704702460020138A0B400BB1012000E064
:1028B00000207047CA430282704730B502460020AC
:1028C00000230024158A05EA0103958905EA01041D
:1028D00013B10CB1012000E0002030BDCA430282D8
:1028E0007047000010B50446FB48844209D101211D
:1028F0008803FFF79FF800214FF48040FFF79AF814
:1029000032E0F648844209D101214804FFF79FF8DC
:1029100000214FF40030FFF79AF825E0F048844298
:1029200009D101218804FFF792F800214FF480209B
:10293000FFF78DF818E0EB48844209D10121C80463
:10294000FFF785F800214FF40020FFF780F80BE037
:10295000E548844208D101210805FFF778F80021F5
:102960004FF48010FFF773F810BD2DE9F04786B0E3
:1029700005460E460024A24600BFA1460027B089A6
:1029800000B100BF2F462C8A4CF6FF700440F0883F
:1029900004432C82AC894EF6F3100440B088318990
:1029A0000843718908430443AC81AC8A4FF6FF4069
:1029B0000440B0890443AC8201A8FEF7B4FFC648C6
:1029C000874202D1DDF810A001E0DDF80CA0A88953
:1029D00000F4004040B10AEBCA0000EB0A10316875
:1029E0004900B0FBF1F807E00AEBCA0000EB0A105F
:1029F00031688900B0FBF1F86420B8FBF0F0040105
:102A00002009642101FB1089A88900F4004040B12D
:102A1000322000EBC900B0FBF1F000F007000443E6
:102A200008E0322000EB09106421B0FBF1F000F067
:102A30000F0004432C8106B0BDE8F0874FF4165117
:102A4000016000218180C18001810C214181002130
:102A50008181704710B502460020108A4FF2FF03B3
:102A600018400B884C8823438C882343CC8823430D
:102A70001843108210BD0021018041808180C180F7
:102A8000704721B1828942F40052828104E0828938
:102A90004DF6FF731A4082817047F0B5034600245B
:102AA00000260025002040F66A17B94200D100BF79
:102AB0001846C1F3421401F01F06012707FA06F574
:102AC000012C01D10C3004E0022C01D1103000E0C7
:102AD00014301AB107682F43076002E00768AF435C
:102AE0000760F0BD1AB1838A0B43838202E0838AB8
:102AF0008B4383827047028A4FF6F0731A4002823A
:102B0000028A0A430282704782894FF2FF731A4099
:102B1000828182890A438281704721B1828942F091
:102B20000202828104E082894FF6FD731A4082819D
:102B30007047028A4FF6DF731A400282028A0A4304
:102B40000282704721B1028A42F48042028204E08C
:102B5000028A4BF6FF731A4002827047C1F30802E3
:102B60008280704701468888C0F3080070478189D9
:102B700041F0010181817047028BD2B20283028B46
:102B800042EA012202837047028B02F47F420283F1
:102B9000028B0A430283704721B1828A42F02002ED
:102BA000828204E0828A4FF6DF731A408282704785
:102BB00021B1828A42F01002828204E0828A4FF6BA
:102BC000EF731A408282704721B1828A42F0080274
:102BD000828204E0828A4FF6F7731A40828270473D
:102BE00021B1828942F40042828103E08289C2F3EA
:102BF0000E028281704721B1828A42F40062828291
:102C000004E0828A4FF2FF731A4082827047828A00
:102C10004FF6FB731A408282828A0A43828270478F
:102C200021B1828A42F00202828204E0828A4FF657
:102C3000FD731A408282704702460020B1F5007F82
:102C400000D100BF13880B400BB1012000E0002031
:102C5000704701F40072B2F5007F00D100BFCA4393
:102C60000280704770B50246002400230025002032
:102C700040F66A16B14200D100BFC1F3421501F01F
:102C80001F03012606FA03F3012D02D19689334072
:102C900006E0022D02D1168A334001E0968A3340C5
:102CA0000C12012606FA04F41688344013B10CB154
:102CB000012000E0002070BD10B50022002340F686
:102CC0006A14A14200D100BF0A1201249440A3B2A9
:102CD000DC43048010BD0000003801400044004087
:102CE00000480040004C00400050004000EBC00194
:102CF000C9004FF0E022516100219161052111616D
:102D000000BF4FF0E021096901F480310029F8D0BB
:102D100004214FF0E0221161704700B5034603E043
:102D20004FF47A70FFF7E2FF181EA3F10103F7D109
:102D300000BD10B5044603E04FF47A70FFF7EDFFD5
:102D4000201EA4F10104F7D110BD000010B54FF40E
:102D50008051FE48FEF729FA10BD10B54021FB480E
:102D6000FEF723FA10BD7FB504460E46F84903C9A5
:102D7000CDE90201F649083103C9CDE90001BDF8EA
:102D80000C100298FEF72BFA002513E0BDF8041092
:102D90000098FEF726FA6420FFF7BFFFBDF8041085
:102DA0000098FEF71CFA601EA84202DD3046FFF7CD
:102DB000B4FF6D1CA542E9DB7FBD10B586B00446AB
:102DC000E349103103C9CDE90401E149183103C9D0
:102DD000CDE90201DE49203103C9CDE900016D2CA6
:102DE0005ED006DC622C2BD0632C49D0672C77D1C7
:102DF00016E0722C04D0772C62D0792C70D12FE0A1
:102E0000BDF814100498FEF7ECF9BDF80C10029808
:102E1000FEF7E5F9BDF804100098FEF7E0F95FE071
:102E2000BDF80C100298FEF7DCF9BDF814100498F8
:102E3000FEF7D5F9BDF804100098FEF7D0F94FE081
:102E4000BDF804100098FEF7CCF9BDF814100498F2
:102E5000FEF7C5F9BDF80C100298FEF7C0F93FE087
:102E6000BDF814100498FEF7BCF9BDF80C100298D8
:102E7000FEF7B7F9BDF804100098FEF7B0F92FE09F
:102E8000BDF80C100298FEF7ACF9BDF804100098DC
:102E9000FEF7A7F9BDF814100498FEF7A0F91FE09B
:102EA000BDF814100498FEF79CF9BDF804100098C2
:102EB000FEF797F9BDF80C100298FEF790F90FE0B5
:102EC000BDF814100498FEF78CF9BDF80C100298A8
:102ED000FEF787F9BDF804100098FEF782F900BFED
:102EE00000BF06B010BD2DE9F04F8FB004460D466F
:102EF00016469848006800EB04099648006800EB05
:102F0000050A601900287CD10220934908704FF00F
:102F1000000B6DE09148006801F0D4FB07460022E9
:102F20008F4B01F0FBFB1ED216E010218748FEF705
:102F300056F988480068FFF7D9FE10218348FEF74C
:102F400050F920218148FEF74AF94846FFF7CEFEA6
:102F500020217E48FEF745F900218048006801F0F5
:102F60001BFCE2D342E07D48006801F0ABFB074662
:102F700000227C4B01F0BAFB1ED216E020217348E0
:102F8000FEF72DF973480068FFF7B0FE20216F4867
:102F9000FEF727F910216D48FEF721F95046FFF79B
:102FA000A5FE10216948FEF71CF900216B48006856
:102FB00001F0E8FBE2D319E020216448FEF70FF9A5
:102FC0004846FFF793FE20216048FEF70AF91021DA
:102FD0005E48FEF704F95046FFF788FE10215B4873
:102FE000FEF7FFF80A20FFF798FE00BF0BF1010B78
:102FF000B3458FDB0020584908700FB0BDE8F08F53
:10300000FFE700205549086007E101205249087098
:10301000304601F02DFBCDE90C015348B0F900001A
:1030200001F026FB0022514BCDE9000101F0B1FA7D
:1030300000224F4BCDE9020101F039FA4D4A4E4BC7
:10304000CDE9040101F033FACDE9080143480068F5
:1030500001F038FBCDE90601DDE9082301F080F934
:1030600000221346CDE90A0101F040FB25D23E487B
:10307000B0F9000001F0FCFA00223C4BCDE902015E
:1030800001F087FA00223A4BCDE9040101F00FFA72
:10309000384A394BCDE9060101F009FACDE90A01B8
:1030A0002E48006801F00EFBCDE90801DDE90A2396
:1030B00001F056F981F0004122E02B48B0F9000000
:1030C00001F0D6FA0022294BCDE9020101F061FAA4
:1030D0000022274BCDE9040101F0E9F9254A264BEE
:1030E000CDE9060101F0E3F9CDE90A011B480068CA
:1030F00001F0E8FACDE90801DDE90A2301F030F931
:103100000746DDE90C2301F009FB49D800201249EC
:103110000870002737E020210C48FEF760F80D49C1
:103120000968081BFFF7E2FD20210848FEF759F85F
:1031300010210648FEF753F806490968481BFFF7B7
:10314000D5FD10210148FEF74CF817E000180140AA
:103150007C490008140000204C0000201C000020C6
:1031600000000440000004C01A000020C0FFDF403F
:1031700000406F409A9999999999B93F0A20FFF7B1
:10318000CCFD781CC7B2AD48B0F9000041F28831DF
:1031900090FBF1F0B842BEDC0020A94908603DE098
:1031A0000523A848B0F900200121022000F0E1FA2F
:1031B0000523A248B0F900200821022000F0D9FA26
:1031C0002021A148FEF70BF89C48B0F900006043AD
:1031D00047F6FF7190FBF1F0A9EB00073846FFF7C7
:1031E00085FD20219848FDF7FCFF10219648FDF74A
:1031F000F6FF9248B0F90000684347F6FF7190FB74
:10320000F1F0AAEB00073846FFF770FD10218E4859
:10321000FDF7E7FF0A20FFF780FDF6E600BF00F0AC
:103220001CFA00BFE9E62DE9FF5F01218807FFF7DF
:1032300044FB01287ED18548007801285CD14820D4
:1032400000F0ACFB0446472000F0A8FB44EA002055
:1032500000B27A4908800846B0F90000002804DA74
:103260000846B0F90000404202E07448B0F900009E
:10327000B0F5FA7F02DA0020704908806F48B0F993
:10328000000001F0F5F980460022714B01F081F950
:10329000064600226F4B01F00AF96F4A6F4BCDE9E9
:1032A000000101F004F904460D466548006801F08C
:1032B00009FA22462B46CDE9020101F051F8824677
:1032C00001F044FA5E49086065A20121032000F084
:1032D00010FA5B48006801F0DCF90446032322463B
:1032E0000821184600F045FA05235448B0F900209B
:1032F0000121022000F03DFA5448007802287CD1D8
:103300003C2000F04BFB04463B2000F047FB44EA26
:10331000002000B24B490880482000F03FFB0446E3
:10332000472000F03BFB44EA002000B243490880FC
:10333000444800E080E0B0F9000001F099F98246CD
:103340000022434B01F025F9804600224FF08043D4
:1033500001F0ADF80646404A434B01F0A8F8044698
:103360003D4A3E4B01F0A3F80022404BCDE900015D
:1033700001F09DF8CDE9020101F0E8F93C4908604F
:103380002E48B0F9000001F073F980460022304B5E
:1033900001F0FFF800222F4BCDE9000101F087F882
:1033A00006462D4A2D4B01F082F804460D4624486E
:1033B000006801F087F9824622462B4600F0D0FFD4
:1033C000CDE9020101F0C2F91D49086029A20121DD
:1033D000032000F08EF92648006801F05AF90446EF
:1033E000032322460A21184600F0C3F90523154895
:1033F000B0F900200121022000E019E000F0B9F945
:1034000005230E48B0F900200821022000F0B1F990
:1034100013A20121042000F06CF90948006801F0B2
:1034200038F90446052322460821042000F0A1F9BA
:1034300001218807FFF752FABDE8FF9F1A0000201C
:103440001C00002018000020001801404C00002043
:10345000C0FFDF4000406F409A9999999999B93F10
:103460006465677265653A00999923400000594088
:103470002000002076656C6F636974793A00000063
:103480001FB501210846FEF7C8FA4FF08040FEF74D
:103490007FFF0020ADF80A00ADF8060040F2E730EB
:1034A000ADF8080041F61F40ADF8040000208DF88B
:1034B0000C0001A94FF08040FEF7DAFB01218807DC
:1034C000FFF7F8F9012211469007FEF748FF4FF485
:1034D000A060FCF74BFE1C208DF8000001208DF849
:1034E000030002208DF8010001208DF802006846DB
:1034F000FCF741FE01218807FEF716FF1FBD000003
:1035000008B501210820FEF77BFA10208DF8030092
:1035100003208DF802004FF40060ADF8000069460A
:10352000FD48FDF7AFFD4FF40060ADF800006946BF
:10353000FA48FDF7A7FD0122D102F848FDF753FE36
:103540000122D102F448FDF74EFE08BD10B501225C
:10355000D102F148FDF747FE0122D102EF48FDF705
:1035600042FE00224FF40061EB48FDF73CFE0022D2
:103570004FF40061E948FDF736FE10BD10B500229A
:103580004FF40061E448FDF72EFE0122D102E3482A
:10359000FDF729FE0122D102DF48FDF724FE10BD10
:1035A00070B50546002419E080202041284008B16C
:1035B000012000E0002002464FF40061D648FDF7EC
:1035C00012FE0122D102D548FDF70DFE00224FF474
:1035D0000061D248FDF707FE601CC4B2082CE3DB93
:1035E0000122D102CD48FDF7FEFD00224FF400611B
:1035F000CA48FDF7F8FD70BD10B50446FFF7A6FFF9
:103600007820FFF7CDFF0020FFF7CAFF2046FFF725
:10361000C7FFFFF7B3FF10BD10B50446FFF796FFD5
:103620007820FFF7BDFF4020FFF7BAFF2046FFF7E5
:10363000B7FFFFF7A3FF10BD70B505460C4645F078
:10364000B000FFF7D9FF102141EA1410FFF7D4FFB3
:1036500004F00F00FFF7D0FF70BD70B500240EE03E
:1036600000212046FFF7E8FF002504E00020FFF7D7
:10367000D3FF681CC5B2802DF8DB601CC4B2082CD7
:10368000EEDB70BD2DE9F04105460E461746721E71
:10369000D206110E6A1E5206100EFFF7CDFF00244F
:1036A00009E0A7F120019E4A02EB0111085DFFF736
:1036B000B3FF601CC4B2082CF3DB721ED206110EDD
:1036C0006A1E012303EB4202D0B2FFF7B5FF0024CC
:1036D0000BE0A7F12001924A02EB011204F108016C
:1036E000505CFFF799FF601CC4B2082CF1DBBDE809
:1036F000F0812DE9F04107460E461546002407E00B
:103700002A5D3019C1B23846FFF7BCFF601CC4B255
:10371000285D0028F4D1BDE8F08110B502460120F3
:1037200000E050430B1EA1F10101FAD110BD2DE9BB
:10373000F04780460E4617461D46002415E0281B1C
:10374000411E0A20FFF7E9FFB7FBF0F00A21B0FBAA
:10375000F1F201FB120000F130093019C1B24A4602
:103760004046FFF78FFF601CC4B2AC42E7DBBDE808
:10377000F0872DE9F0478146884615461E46002D04
:1037800006DB2B2241464846FFF77CFF2F4605E02B
:103790002D2241464846FFF775FF6F42002417E08F
:1037A000301B411E0A20FFF7B8FFB7FBF0F00A21DB
:1037B000B0FBF1F201FB120000F1300A08EB04004B
:1037C000401CC1B252464846FFF75CFF601CC4B2C1
:1037D000B442E5DBBDE8F0872DE9F04781460E46AF
:1037E00090461F4600241DE0381B411E1020FFF7A5
:1037F00094FFB8FBF0F000F00F050A2D08DA05F190
:103800003000C2B23019C1B24846FFF73BFF07E0B3
:1038100005F13700C2B23019C1B24846FFF732FF96
:10382000601CC4B2BC42DFDBBDE8F0872DE9F04785
:1038300080460E4617461D46002412E0281B411EF6
:103840000220FFF76AFFB7FBF0F000F0010000F183
:1038500030093019C1B24A464046FFF713FF601CD9
:10386000C4B2AC42EADBBDE8F08770B5002406E0E4
:10387000002500E06D1CB5F57A7FFBD3641CB4F520
:103880007A7FF5D3FFF73CFEAE20FFF7B5FED520DB
:10389000FFF7B2FE8020FFF7AFFEA820FFF7ACFED7
:1038A0003F20FFF7A9FED320FFF7A6FE0020FFF779
:1038B000A3FE4020FFF7A0FEA120FFF79DFEC82039
:1038C000FFF79AFEDA20FFF797FE1220FFF794FE2B
:1038D0008120FFF791FECF20FFF78EFED920FFF762
:1038E0008BFEF120FFF788FEDB20FFF785FE3020FE
:1038F000FFF782FEA420FFF77FFEA620FFF77CFEE5
:103900008D20FFF779FE1420FFF776FEAF20FFF73A
:1039100073FEFFF7A2FE70BD0010014000140140CD
:10392000A449000870B505460E4642F2107402E044
:10393000641E04B905E031462846FDF78DFE0128D6
:10394000F6D100BF70BD70B504460D4601218A480E
:10395000FDF7A1FD89498848FFF7E4FF0022D02147
:103960008548FDF7EEFD86498348FFF7DBFF2146DA
:103970008148FDF7E0FD8249891E7F48FFF7D2FFAD
:1039800029467D48FDF7D7FD7D49891C7A48FFF718
:10399000C9FF01217848FDF78AFD70BD70B5044666
:1039A00001217548FDF777FD74497348FFF7BAFFA9
:1039B0000022D0217048FDF7C4FD71496E48FFF721
:1039C000B1FF21466C48FDF7B6FD6D49891C6A4878
:1039D000FFF7A8FF01216848FDF75DFD67496648CC
:1039E000FFF7A0FF0122D0216348FDF7AAFD63493C
:1039F000491C6148FFF796FF00215F48FDF763FD12
:103A000001215D48FDF753FD5C493F315A48FFF7FE
:103A100089FF5948FDF791FD054601215648FDF7FC
:103A200052FD284670BD00B585B001218805FDF71F
:103A3000F4FF01210820FDF7E3FF1C208DF813009F
:103A40004FF44060ADF8100003208DF8120004A977
:103A50004C48FDF717FB0020ADF804004A480090E1
:103A60004BF6FF70ADF806004FF48060ADF80A0029
:103A70000001ADF80C000020ADF8080069463E4892
:103A8000FDF767FC01213C48FDF7E1FC01216B20BB
:103A9000FFF759FF00216C20FFF755FF092119207E
:103AA000FFF751FF06211A20FFF74DFF00211B20D1
:103AB000FFF749FF00211C20FFF745FF05B000BDBF
:103AC00010B57520FFF76AFF10BD2DE9F05F0646BF
:103AD0000F4690469946DDE90AAB3B20FFF75EFFB3
:103AE00004463C20FFF75AFF054645EA042000B291
:103AF00030803D20FFF752FF04463E20FFF74EFF87
:103B0000054645EA042000B238803F20FFF746FF13
:103B100004464020FFF742FF054645EA042000B274
:103B2000A8F800004320FFF739FF04464420FFF7C0
:103B300035FF054645EA042000B2A9F800004520FB
:103B4000FFF72CFF04464620FFF728FF054645EA0D
:103B5000042000B2AAF800004720FFF71FFF044628
:103B60004820FFF71BFF054645EA042000B2ABF8EA
:103B70000000BDE8F09F0000005800400100030075
:103B800082000700000C0140801A06000CB50020DE
:103B9000019000906C48006840F480306A490860E9
:103BA00000BF6948006800F4003000900198401C94
:103BB0000190009818B90198B0F5A06FF1D1624852
:103BC000006800F4003010B10120009001E00020F6
:103BD00000900098012843D15C48006840F0100034
:103BE0005A4908600846006820F00300086008464B
:103BF000006840F00200086053484068524948603D
:103C00000846406848600846406840F48060486064
:103C10000846406820F47C1048600846406840F43C
:103C2000E81048600846006840F08070086000BFF7
:103C30004548006800F000700028F9D0424840680C
:103C400020F00300404948600846406840F0020008
:103C5000486000BF3C48406800F00C000828F9D1DB
:103C60000CBD10B5FFF792FF10BD10B536480068C7
:103C700040F0010034490860084640683449084073
:103C80003149486008460068324908402E490860BA
:103C90000846006820F4802008600846406820F448
:103CA000FE0048604FF41F008860FFF7DAFF4FF016
:103CB00000602949086010BD10B5002100200022D5
:103CC000214B5B6803F00C0121B1042906D00829BF
:103CD00028D107E0214B224C236027E01F4B204CCA
:103CE000236023E0184B5B6803F47010164B5B688D
:103CF00003F48032022303EB904022B9194B434373
:103D0000174C23600DE0104B5B6803F4003323B1C4
:103D1000144B4343124C236003E0104B4343104CBD
:103D2000236003E00D4B0E4C236000BF00BF064B29
:103D30005B68C3F303130C4CE15C094B1B68CB407D
:103D4000074C236010BD000000100240002002401C
:103D50000000FFF8FFFFF6FE08ED00E000127A0019
:103D60002400002000093D002800002010B5FDF7C8
:103D7000D9FC4FF48030FDF7F5FCFDF732FDFE492C
:103D8000087008460078012826D11020FCF750FE64
:103D90000220FCF739FE0020FDF769FD4FF480603A
:103DA000FDF76EFD0020FDF774FD4FF4E0114FF4B8
:103DB0008030FDF73FFD0120FDF748FD00BF3920B1
:103DC000FDF7F3FC0028FAD00220FDF742FD00BF0A
:103DD000FDF748FD0828FBD101217D20FDF710FEED
:103DE00001218803FDF70CFE0121C802FDF708FE42
:103DF00001210846FDF711FE01214802FDF700FEF2
:103E000010BD10B54FF40070DC4908801820C87050
:103E100003208870DA48FDF735F94FF48060D74900
:103E200008800420C870D648FDF72CF94FF4406094
:103E3000D24908800420C870D248FDF723F941F226
:103E40003840CE4908801020C87003208870CE48C2
:103E5000FDF718F94FF48060C84908801020C87039
:103E600003208870C948FDF70DF94420C349088034
:103E70001020C87003208870C548FDF703F9302072
:103E8000BE4908801020C87003208870C048FDF724
:103E9000F9F810BD10B500214FF00060FCF79DF956
:103EA0004FF4E060FCF762F909210220FDF700FA07
:103EB0004FF40070B7490860002008710C20487169
:103EC000012088710846FCF71FFD1720B2490870D1
:103ED0000020487088700120C8700846FCF74BF934
:103EE00004210846FDF7E4F91020AA4908600020E3
:103EF00008710C204871012088710846FCF704FD08
:103F00000A20A54908700020487088700120C870F8
:103F10000846FCF730F905210420FDF7C9F92020F7
:103F20009C490860002008710C20487101208871AC
:103F30000846FCF7E9FC17209749087000204870F4
:103F400088700120C8700846FCF715F919209249BD
:103F5000087000204870032088700120C87008464F
:103F6000FCF709F91C208C49087000204870887003
:103F70000120C8700846FCF7FEF810BD00B587B0F8
:103F80004FF4E13003900020ADF81000ADF81200BE
:103F9000ADF81400ADF818000C20ADF8160003A918
:103FA0007E48FEF7E2FC0020ADF80400ADF8060004
:103FB0004FF40070ADF808000020ADF80A0001A928
:103FC0007648FEF747FD012240F225517348FEF77F
:103FD00064FD40217148FEF73CFE01216F48FEF769
:103FE00050FD07B000BD70B54FF4E1667410651068
:103FF0006B48FDF769FD40F60F606A498880002034
:104000000880C880488008726548FDF731FE70203E
:104010006549088001204880042088800846C680C1
:104020000220088108204881400188810020C88141
:104030005B48FDF75AFE5C48C48001465848FDF7CE
:1040400096FE5948C58001465548FDF7DDFE4FF400
:104050000060564908804010488080108880752094
:10406000C8804FF48050088140004881400088811A
:104070004B48FEF719F901214948FEF71BFC0122C4
:1040800011464748FEF76BF901214548FEF74CF908
:1040900001214348FEF754F92007FDF715FD48F6C6
:1040A0009F404049888040F2CF7008800020C8803F
:1040B00048802007FDF7DCFD01218807FEF7FAFBA9
:1040C000012211469007FEF74AF901218807FEF701
:1040D0002BF970BD70B504460D46E1B22F48FEF7CE
:1040E0003DFD00BF40212D48FEF7A6FD0128F9D176
:1040F000204670BD10B5FFF739FEFFF782FEFFF7CF
:104100003DFF10BD05E0082100BF0A1EA1F101011D
:10411000FBD1021EA0F10100F5D1704710B5044695
:1041200003E040F24C40FFF7EDFF201EA4F1010434
:10413000F7D110BDFFF7DEFF00F004F9FFF795FBA4
:10414000FFF79EF9FFF76FFCFFF787FA65E067203E
:10415000FEF733FE16A201210846FFF7CAFA012234
:104160006FF0C701C820FEF7BEFEFEF7EFFD002886
:1041700053D1FFF772FA21E03C0000203800002004
:1041800000080140000C01400010014000140140F3
:1041900000180140440000203D000020003801408C
:1041A000002C0140500000205A0000206A0000202E
:1041B0004E6F204F62737461636C650017A201211A
:1041C0000846FFF796FA7220FEF7F7FD64210120FA
:1041D000FEF7C9FD6220FEF7F0FD5A226FF0C7011D
:1041E0000846FEF780FE7920FEF7E7FD32226FF0E9
:1041F000C701C820FEF777FE6320FEF7DEFD5A22D6
:10420000C8210846FEF76FFE6D20FEF7D6FD64223A
:104210006FF0C701C820FEF766FE98E7466F756E1F
:1042200064204F62737461636C650000704700BF67
:10423000FEE700BFFEE700BFFEE700BFFEE77047F6
:10424000704770477047000008B501210846FDF728
:10425000CAFB01214FF40470FDF7D2FB0220ADF838
:10426000000000208DF8030069463948FCF70AFF7A
:1042700008BD00B591B03748FCF70EFA36480690F5
:1042800036480790002008900120099000200A90ED
:104290000B904FF480700C9080000D9020200E90B9
:1042A00000020F900020109006A92A48FCF796FA09
:1042B00001212848FCF7BDFA002001908DF8080084
:1042C00001208DF809004FF4602003900020049035
:1042D00001208DF8140001A91F484C38FBF7DBFFC3
:1042E0004FF44040FDF7F0FA052301220B211A4854
:1042F0004C38FCF768F8012117484C38FCF702F8F5
:10430000012115484C38FBF7F2FF13484C38FCF7F5
:1043100010F800BF10484C38FCF710F80028F9D10D
:104320000D484C38FCF714F800BF0B484C38FCF72C
:1043300014F80028F9D1012107484C38FCF717F888
:1043400011B000BD10B5FFF77FFFFFF792FF10BD62
:1043500000100140080002404C2401404E000020A3
:104360002DE9FE4F804681EA0300C00F0C46009005
:1043700021F0004123F00045B8EB0200A94105D22D
:104380004046214690461C460B46024623F000401C
:10439000104347D0270DC7F30A00C3F30A51029018
:1043A000401A019040286BDAC3F3130040F4801BDD
:1043B0000098924620B10023D2EB030A63EB0B0B6B
:1043C00001985946C0F14002504600F0EFF9064608
:1043D0000D4650465946019A00F0F7F910EB0800D7
:1043E0006141002487EA115284EAE7731A4340D0FE
:1043F000009A62B3019A012A4FEA075215DC001BAA
:1044000061EB02014FF0004202EA0752CDE900429F
:10441000001C41F5801132462B4600F02EFA03B005
:10442000BDE8F08F40462146F9E7001B61EB020131
:10443000001C41F5801300185B412018A2F50017FD
:1044400047EB030140EAD570B6196D4111E06D08E4
:104450004FEA360645EAC0754FEA0752001B61EB8A
:104460000201001C41F5801149084FEA3000001993
:10447000514132462B4603B0BDE8F04F00F0EEB993
:104480000098012240000023D0EB020263EBE073AE
:10449000009821464FEAE074B8EB000061EB04019C
:1044A000E9E783F000435BE781F0004158E72DE93D
:1044B000FE4F81EA030404F0004421F0004100941F
:1044C0004FF0000B23F0004350EA01045ED052EAA3
:1044D00003045BD0C3F30A54C1F30A552C44A4F27D
:1044E000F3340194A0FB0254C1F3130141F4801191
:1044F000C3F3130343F4801301FB024400FB034E98
:10450000840A970A44EA815447EA8357A4FB076860
:1045100002958D0A05FB07854FEA932C04FB0C548A
:104520002705029D4FEA065847EA1637B5EB0805FE
:104530006EEB070C870E920E47EA811742EA831250
:10454000A7FB0201B6EB0B0164EB00042B0D43EA61
:104550000C335E1844EB1C50DA465146E7FB02016F
:10456000C5F313044FEA0B3343EA14534FEA043202
:10457000019C43EA0603A4F10C040294009CCDE9DB
:1045800000B400F07AF903B0BDE8F08F00200146D6
:10459000F9E72DE9F04D81EA030404F0004B21F026
:1045A000004514464FF0000A23F0004150EA05028E
:1045B00020D054EA01021DD0C5F30A570246C5F3C4
:1045C0001303C1F31300C1F30A5640F4801543F4FA
:1045D0008013A7EB0608101BD64608F2FD3873EBD4
:1045E000050002D308F1010801E092185B41B8F11F
:1045F000000F03DA00200146BDE8F08D00204FF4E3
:104600008011064684460EE0171B73EB050705D3A1
:10461000121B63EB050306434CEA010C49084FEA01
:10462000300092185B4150EA0107EDD152EA0300D5
:1046300012D082EA040083EA0501084305D0101B6A
:10464000AB4106D20122002306E000224FF00043D6
:1046500002E06FF0010253101AEB06004CEB085118
:1046600010EB0A0041EB0B01BDE8F04D00F0F6B88D
:104670000EB5C10F80EAE0700844CA07002140F27D
:1046800033438DE80E000A460B4600F0F6F803B0FF
:1046900000BD00F0004220F00040C10DC0F3160044
:1046A00040F400007F2901DA00207047962903DCDE
:1046B000C1F19601C84001E096398840002AF4D043
:1046C0004042704700F0004230F000400AD0C10D77
:1046D00001F56071C0F3160042EA0151C2084007BB
:1046E00011437047002001467047000030B5041E9A
:1046F00071F1000404DB4FF00044404264EB01011F
:10470000141E73F1000405DB1C464FF000435242B7
:1047100063EB04038B4208BF824230BD30B5041EF8
:1047200071F1000404DB4FF00044404264EB0101EE
:10473000141E73F1000405DB1C464FF00043524287
:1047400063EB0403994208BF904230BD01F000437F
:1047500030B421F0004150EA010206D00A0DA2F562
:104760006072C1F31301002A02DC30BC00207047E4
:10477000440F44EAC104C100E01830BC00EBC25051
:1047800000F035B8002801DBC0F10040002901DB52
:10479000C1F1004181427047002801DBC0F10040B7
:1047A000002901DBC1F1004188427047202A04DB67
:1047B000203A00FA02F1002070479140C2F1200334
:1047C00020FA03F3194390407047202A06DBCB17E9
:1047D000203A41FA02F043EAE07306E041FA02F3BC
:1047E000D040C2F120029140084319467047002989
:1047F000A8BF7047401C490008BF20F00100704767
:1048000010B4B0FA80FC00FA0CF050EA010404BFC6
:1048100010BC704749B1CCF1200421FA04F411FA1C
:104820000CF118BF012121430843A3EB0C01CB1D60
:104830004FEA00614FEA102042BF002010BC7047D1
:1048400000EBC35010440029A4BF10BC7047401CAB
:10485000490008BF20F0010010BC704710B5141EBD
:1048600073F1000408DA401C41F1000192185B4129
:104870001A4301D120F0010010BD2DE9F04D924600
:104880009B4611B1B1FA81F202E0B0FA80F2203217
:104890009046FFF78BFF04460F4640EA0A0041EAC4
:1048A0000B0153465A46084313D0114653EA010000
:1048B00019D0C8F14002504600F040F805460E46B7
:1048C000504659464246FFF771FF084305D0012084
:1048D00004E020463946BDE8F08D0020054346EA55
:1048E000E0762C4337430A986305E40AA0EB0800FE
:1048F0000022FD0A44EA47540A3002D5002001464E
:10490000E9E7010510196941DDE908450019694128
:10491000BDE8F04DA2E70000064C074D06E0E06858
:1049200040F0010394E8070098471034AC42F6D3F6
:10493000FBF702FC944F0008B44F0008202A04DB68
:10494000203A21FA02F00021704721FA02F3D04008
:10495000C2F12002914008431946704702E008C89E
:10496000121F08C1002AFAD170477047002001E0E9
:1049700001C1121F002AFBD1704700000014014042
:104980000004000000100140000400000018014075
:104990004000000000180140040000000010014029
:1049A00000100000000000000000000000000000F7
:1049B00000000000000000F80000000000000033CC
:1049C0003000000000100C06100C06000000000073
:1049D0000000000040C07840C0784000043F04045C
:1049E0003F040400007088FC08300000001820FF1D
:1049F000211E0000F008F000E018000000211C0358
:104A00001E211E0000F00888700000001E212324D3
:104A10001927211010160E000000000000000000F1
:104A200000000000000000E0180402000000000781
:104A30001820400000020418E00000000040201888
:104A400007000000404080F0804040000202010F5B
:104A500001020200000000F0000000000101011F3F
:104A600001010100000000000000000080B07000A3
:104A70000000000000000000000000000001010133
:104A800001010101000000000000000000303000C2
:104A9000000000000000000080601804006018069C
:104AA0000100000000E010080810E000000F1020D6
:104AB00020100F00001010F8000000000020203F20
:104AC00020200000007008080888700000302824AA
:104AD000222130000030088888483000001820204B
:104AE00020110E000000C02010F800000007042470
:104AF000243F240000F808888808080000192120B5
:104B000020110E0000E0108888180000000F11200E
:104B100020110E0000380808C83808000000003FC7
:104B2000000000000070880808887000001C222126
:104B300021221C0000E010080810E00000003122D3
:104B400022110F00000000C0C00000000000003073
:104B500030000000000000800000000000008060C5
:104B60000000000000008040201008000001020446
:104B7000081020004040404040404000040404042D
:104B800004040400000810204080000000201008E9
:104B900004020100007048080808F000000000301E
:104BA00036010000C030C828E810E00007182724AC
:104BB00023140B000000C038E0000000203C23025A
:104BC0000227382008F8888888700000203F2020BD
:104BD00020110E00C03008080808380007182020EF
:104BE0002010080008F808080810E000203F2020E6
:104BF00020100F0008F88888E8081000203F2020C7
:104C00002320180008F88888E8081000203F2000BA
:104C100003000000C03008080838000007182020F2
:104C2000221E020008F808000008F808203F2101B1
:104C300001213F20000808F8080800000020203F5C
:104C40002020000000000808F8080800C0808080CC
:104C50007F00000008F888C028180800203F2001C5
:104C60002638200008F8080000000000203F20201F
:104C70002020300008F8F800F8F80800203F003F36
:104C8000003F200008F830C00008F808203F20004E
:104C900007183F00E01008080810E0000F1020205F
:104CA00020100F0008F808080808F000203F210134
:104CB00001010000E01008080810E0000F1824248B
:104CC00038504F0008F8888888887000203F2000FE
:104CD000030C3020007088080808380000382021B4
:104CE00021221C00180808F8080818000000203FBE
:104CF0002000000008F808000008F808001F202025
:104D000020201F000878880000C8380800000738F5
:104D10000E010000F80800F80008F800033C070046
:104D2000073C0300081868808068180820302C03AE
:104D3000032C30200838C800C83808000000203F85
:104D40002000000010080808C83808002038262174
:104D500020201800000000FE020202000000007F78
:104D600040404000000C30C0000000000000000186
:104D70000638C00000020202FE0000000040404071
:104D80007F00000000000402020204000000000096
:104D90000000000000000000000000008080808013
:104DA00080808080000202040000000000000000FB
:104DB0000000000000008080808000000019242294
:104DC00022223F2008F8008080000000003F1120D0
:104DD00020110E000000008080800000000E1120D5
:104DE00020201100000000808088F800000E1120B3
:104DF00020103F200000808080800000001F2222C1
:104E000022221300008080F0888888180020203F2C
:104E1000202000000000808080808000006B94943F
:104E20009493600008F8008080800000203F2100FB
:104E300000203F2000809898000000000020203FC4
:104E400020200000000000809898000000C08080B2
:104E5000807F000008F8000080808000203F24024E
:104E60002D302000000808F8000000000020203F3E
:104E7000202000008080808080808000203F2000F3
:104E80003F20003F8080008080800000203F210084
:104E900000203F200000808080800000001F202034
:104EA00020201F00808000808000000080FFA12063
:104EB00020110E000000008080808000000E112074
:104EC00020A0FF80808080008080800020203F2103
:104ED00020000100000080808080800000332424B6
:104EE00024241900008080E0808000000000001F62
:104EF000202000008080000000808000001F202013
:104F000020103F20808080000080808000010E30D3
:104F10000806010080800080008080800F300C0334
:104F20000C300F0000808000808080000020312E37
:104F30000E312000808080000080808080818E7013
:104F40001806010000808080808080000021302CC5
:104F50002221300000000000807C020200000000DE
:104F6000003F404000000000FF0000000000000083
:104F7000FF0000000002027C800000000040403F73
:104F8000000000000006010102020404000000000D
:104F900000000000B44F0008000000205000000096
:104FA0005C4900080450000850000020280400005C
:104FB0006C49000800000000010203040102030420
:104FC0000607080902040608A40600000000000005
:104FD000000000000000000000A24A0400000000E1
:104FE0000000000001020304060708090000000099
:104FF00000000000000000000000000000000000B1
:0450000000000000AC
:0400000508000131BD
:00000001FF
